{
  "_format": "hh-sol-artifact-1",
  "contractName": "MedVault",
  "sourceName": "contracts/MedVault.sol",
  "abi": [
    {
      "inputs": [],
      "stateMutability": "nonpayable",
      "type": "constructor"
    },
    {
      "anonymous": false,
      "inputs": [
        {
          "indexed": true,
          "internalType": "address",
          "name": "patient",
          "type": "address"
        },
        {
          "indexed": true,
          "internalType": "address",
          "name": "doctor",
          "type": "address"
        }
      ],
      "name": "AccessGranted",
      "type": "event"
    },
    {
      "anonymous": false,
      "inputs": [
        {
          "indexed": true,
          "internalType": "address",
          "name": "patient",
          "type": "address"
        },
        {
          "indexed": true,
          "internalType": "address",
          "name": "doctor",
          "type": "address"
        }
      ],
      "name": "AccessRevoked",
      "type": "event"
    },
    {
      "anonymous": false,
      "inputs": [
        {
          "indexed": true,
          "internalType": "address",
          "name": "doctor",
          "type": "address"
        },
        {
          "indexed": true,
          "internalType": "address",
          "name": "verifier",
          "type": "address"
        }
      ],
      "name": "PractitionerVerified",
      "type": "event"
    },
    {
      "anonymous": false,
      "inputs": [
        {
          "indexed": true,
          "internalType": "address",
          "name": "patient",
          "type": "address"
        },
        {
          "indexed": false,
          "internalType": "uint256",
          "name": "recordId",
          "type": "uint256"
        },
        {
          "indexed": false,
          "internalType": "string",
          "name": "ipfsHash",
          "type": "string"
        }
      ],
      "name": "RecordAdded",
      "type": "event"
    },
    {
      "anonymous": false,
      "inputs": [
        {
          "indexed": true,
          "internalType": "address",
          "name": "patient",
          "type": "address"
        },
        {
          "indexed": false,
          "internalType": "uint256",
          "name": "recordId",
          "type": "uint256"
        }
      ],
      "name": "RecordDeleted",
      "type": "event"
    },
    {
      "anonymous": false,
      "inputs": [
        {
          "indexed": true,
          "internalType": "address",
          "name": "user",
          "type": "address"
        },
        {
          "indexed": false,
          "internalType": "enum MedVault.Role",
          "name": "role",
          "type": "uint8"
        }
      ],
      "name": "RoleRegistered",
      "type": "event"
    },
    {
      "inputs": [
        {
          "internalType": "string",
          "name": "_ipfsHash",
          "type": "string"
        },
        {
          "internalType": "string",
          "name": "_title",
          "type": "string"
        }
      ],
      "name": "addMedicalRecord",
      "outputs": [],
      "stateMutability": "nonpayable",
      "type": "function"
    },
    {
      "inputs": [
        {
          "internalType": "address",
          "name": "_patient",
          "type": "address"
        },
        {
          "internalType": "address",
          "name": "_doctor",
          "type": "address"
        }
      ],
      "name": "checkAccessClearance",
      "outputs": [
        {
          "internalType": "bool",
          "name": "",
          "type": "bool"
        }
      ],
      "stateMutability": "view",
      "type": "function"
    },
    {
      "inputs": [
        {
          "internalType": "uint256",
          "name": "_recordId",
          "type": "uint256"
        }
      ],
      "name": "deleteRecord",
      "outputs": [],
      "stateMutability": "nonpayable",
      "type": "function"
    },
    {
      "inputs": [],
      "name": "getMyAuthorizedDoctors",
      "outputs": [
        {
          "internalType": "address[]",
          "name": "",
          "type": "address[]"
        }
      ],
      "stateMutability": "view",
      "type": "function"
    },
    {
      "inputs": [],
      "name": "getMyRecords",
      "outputs": [
        {
          "components": [
            {
              "internalType": "uint256",
              "name": "id",
              "type": "uint256"
            },
            {
              "internalType": "string",
              "name": "ipfsHash",
              "type": "string"
            },
            {
              "internalType": "string",
              "name": "title",
              "type": "string"
            },
            {
              "internalType": "uint256",
              "name": "timestamp",
              "type": "uint256"
            },
            {
              "internalType": "bool",
              "name": "isDeleted",
              "type": "bool"
            }
          ],
          "internalType": "struct MedVault.MedicalRecord[]",
          "name": "",
          "type": "tuple[]"
        }
      ],
      "stateMutability": "view",
      "type": "function"
    },
    {
      "inputs": [
        {
          "internalType": "address",
          "name": "_patientAddress",
          "type": "address"
        }
      ],
      "name": "getPatientRecordsAsDoctor",
      "outputs": [
        {
          "components": [
            {
              "internalType": "uint256",
              "name": "id",
              "type": "uint256"
            },
            {
              "internalType": "string",
              "name": "ipfsHash",
              "type": "string"
            },
            {
              "internalType": "string",
              "name": "title",
              "type": "string"
            },
            {
              "internalType": "uint256",
              "name": "timestamp",
              "type": "uint256"
            },
            {
              "internalType": "bool",
              "name": "isDeleted",
              "type": "bool"
            }
          ],
          "internalType": "struct MedVault.MedicalRecord[]",
          "name": "",
          "type": "tuple[]"
        }
      ],
      "stateMutability": "view",
      "type": "function"
    },
    {
      "inputs": [
        {
          "internalType": "address",
          "name": "_doctor",
          "type": "address"
        }
      ],
      "name": "grantAccessToDoctor",
      "outputs": [],
      "stateMutability": "nonpayable",
      "type": "function"
    },
    {
      "inputs": [
        {
          "internalType": "address",
          "name": "",
          "type": "address"
        }
      ],
      "name": "isRegistered",
      "outputs": [
        {
          "internalType": "bool",
          "name": "",
          "type": "bool"
        }
      ],
      "stateMutability": "view",
      "type": "function"
    },
    {
      "inputs": [
        {
          "internalType": "enum MedVault.Role",
          "name": "_role",
          "type": "uint8"
        }
      ],
      "name": "registerRole",
      "outputs": [],
      "stateMutability": "nonpayable",
      "type": "function"
    },
    {
      "inputs": [
        {
          "internalType": "address",
          "name": "_userAddress",
          "type": "address"
        },
        {
          "internalType": "enum MedVault.Role",
          "name": "_role",
          "type": "uint8"
        }
      ],
      "name": "registerUser",
      "outputs": [],
      "stateMutability": "nonpayable",
      "type": "function"
    },
    {
      "inputs": [
        {
          "internalType": "address",
          "name": "_doctor",
          "type": "address"
        }
      ],
      "name": "revokeAccessFromDoctor",
      "outputs": [],
      "stateMutability": "nonpayable",
      "type": "function"
    },
    {
      "inputs": [],
      "name": "systemOwner",
      "outputs": [
        {
          "internalType": "address",
          "name": "",
          "type": "address"
        }
      ],
      "stateMutability": "view",
      "type": "function"
    },
    {
      "inputs": [
        {
          "internalType": "address",
          "name": "",
          "type": "address"
        }
      ],
      "name": "userRoles",
      "outputs": [
        {
          "internalType": "enum MedVault.Role",
          "name": "",
          "type": "uint8"
        }
      ],
      "stateMutability": "view",
      "type": "function"
    },
    {
      "inputs": [
        {
          "internalType": "address",
          "name": "_pendingDoctor",
          "type": "address"
        }
      ],
      "name": "verifyPractitioner",
      "outputs": [],
      "stateMutability": "nonpayable",
      "type": "function"
    }
  ],
  "bytecode": "0x60806040523480156200001157600080fd5b50336000806101000a81548173ffffffffffffffffffffffffffffffffffffffff021916908373ffffffffffffffffffffffffffffffffffffffff1602179055506002600160003373ffffffffffffffffffffffffffffffffffffffff1673ffffffffffffffffffffffffffffffffffffffff16815260200190815260200160002060006101000a81548160ff02191690836002811115620000b857620000b76200016c565b5b02179055506001600260003373ffffffffffffffffffffffffffffffffffffffff1673ffffffffffffffffffffffffffffffffffffffff16815260200190815260200160002060006101000a81548160ff0219169083151502179055503373ffffffffffffffffffffffffffffffffffffffff167f1e9acfe4df89a29b2be615d44fd962d8ce1fd19ff4a74ddf5a9401a6a4a2a6d260026040516200015e9190620001ec565b60405180910390a262000209565b7f4e487b7100000000000000000000000000000000000000000000000000000000600052602160045260246000fd5b60038110620001af57620001ae6200016c565b5b50565b6000819050620001c2826200019b565b919050565b6000620001d482620001b2565b9050919050565b620001e681620001c7565b82525050565b6000602082019050620002036000830184620001db565b92915050565b613cfe80620002196000396000f3fe608060405234801561001057600080fd5b50600436106100ea5760003560e01c80639e9fa0971161008c578063d295a31e11610066578063d295a31e14610247578063da07943c14610263578063e5953a4514610293578063e76637ce146102af576100ea565b80639e9fa097146101dd578063bda37dc1146101f9578063c3c5a54714610217576100ea565b806333779254116100c8578063337792541461014357806354b864ff14610161578063629e559d1461019157806374d5e100146101ad576100ea565b8063061f9811146100ef5780630a52c10a1461010b5780631c8e251c14610127575b600080fd5b61010960048036038101906101049190612b6c565b6102cd565b005b61012560048036038101906101209190612bbe565b610638565b005b610141600480360381019061013c9190612c49565b610916565b005b61014b610e47565b6040516101589190612c85565b60405180910390f35b61017b60048036038101906101769190612ca0565b610e6b565b6040516101889190612cfb565b60405180910390f35b6101ab60048036038101906101a69190612c49565b610eff565b005b6101c760048036038101906101c29190612c49565b611542565b6040516101d49190612d8d565b60405180910390f35b6101f760048036038101906101f29190612da8565b611562565b005b610201611890565b60405161020e9190612ea6565b60405180910390f35b610231600480360381019061022c9190612c49565b611a65565b60405161023e9190612cfb565b60405180910390f35b610261600480360381019061025c9190612c49565b611a85565b005b61027d60048036038101906102789190612c49565b611d83565b60405161028a91906130b5565b60405180910390f35b6102ad60048036038101906102a8919061313c565b61232b565b005b6102b7612625565b6040516102c491906130b5565b60405180910390f35b6000600260003373ffffffffffffffffffffffffffffffffffffffff1673ffffffffffffffffffffffffffffffffffffffff16815260200190815260200160002060009054906101000a900460ff168015610397575080600281111561033657610335612d16565b5b600160003373ffffffffffffffffffffffffffffffffffffffff1673ffffffffffffffffffffffffffffffffffffffff16815260200190815260200160002060009054906101000a900460ff16600281111561039557610394612d16565b5b145b6103d6576040517f08c379a00000000000000000000000000000000000000000000000000000000081526004016103cd90613240565b60405180910390fd5b6000600360003373ffffffffffffffffffffffffffffffffffffffff1673ffffffffffffffffffffffffffffffffffffffff1681526020019081526020016000208054905090506000805b828110156105f15784600360003373ffffffffffffffffffffffffffffffffffffffff1673ffffffffffffffffffffffffffffffffffffffff168152602001908152602001600020828154811061047b5761047a613260565b5b9060005260206000209060050201600001541480156105075750600360003373ffffffffffffffffffffffffffffffffffffffff1673ffffffffffffffffffffffffffffffffffffffff16815260200190815260200160002081815481106104e6576104e5613260565b5b906000526020600020906005020160040160009054906101000a900460ff16155b156105de576001600360003373ffffffffffffffffffffffffffffffffffffffff1673ffffffffffffffffffffffffffffffffffffffff168152602001908152602001600020828154811061055f5761055e613260565b5b906000526020600020906005020160040160006101000a81548160ff021916908315150217905550600191503373ffffffffffffffffffffffffffffffffffffffff167fdd8f9b8bb78c3654c0d21819fea0af920a136c830f6db0b0cb220422f316bab0866040516105d1919061329e565b60405180910390a26105f1565b80806105e9906132e8565b915050610421565b5080610632576040517f08c379a0000000000000000000000000000000000000000000000000000000008152600401610629906133c8565b60405180910390fd5b50505050565b600260003373ffffffffffffffffffffffffffffffffffffffff1673ffffffffffffffffffffffffffffffffffffffff16815260200190815260200160002060009054906101000a900460ff16156106c5576040517f08c379a00000000000000000000000000000000000000000000000000000000081526004016106bc90613480565b60405180910390fd5b600060028111156106d9576106d8612d16565b5b8160028111156106ec576106eb612d16565b5b03610805576000600160003373ffffffffffffffffffffffffffffffffffffffff1673ffffffffffffffffffffffffffffffffffffffff16815260200190815260200160002060006101000a81548160ff0219169083600281111561075457610753612d16565b5b02179055506001600260003373ffffffffffffffffffffffffffffffffffffffff1673ffffffffffffffffffffffffffffffffffffffff16815260200190815260200160002060006101000a81548160ff0219169083151502179055503373ffffffffffffffffffffffffffffffffffffffff167f1e9acfe4df89a29b2be615d44fd962d8ce1fd19ff4a74ddf5a9401a6a4a2a6d260006040516107f89190612d8d565b60405180910390a2610913565b80600160003373ffffffffffffffffffffffffffffffffffffffff1673ffffffffffffffffffffffffffffffffffffffff16815260200190815260200160002060006101000a81548160ff0219169083600281111561086757610866612d16565b5b02179055506000600260003373ffffffffffffffffffffffffffffffffffffffff1673ffffffffffffffffffffffffffffffffffffffff16815260200190815260200160002060006101000a81548160ff0219169083151502179055503373ffffffffffffffffffffffffffffffffffffffff167f1e9acfe4df89a29b2be615d44fd962d8ce1fd19ff4a74ddf5a9401a6a4a2a6d28260405161090a9190612d8d565b60405180910390a25b50565b6000600260003373ffffffffffffffffffffffffffffffffffffffff1673ffffffffffffffffffffffffffffffffffffffff16815260200190815260200160002060009054906101000a900460ff1680156109e0575080600281111561097f5761097e612d16565b5b600160003373ffffffffffffffffffffffffffffffffffffffff1673ffffffffffffffffffffffffffffffffffffffff16815260200190815260200160002060009054906101000a900460ff1660028111156109de576109dd612d16565b5b145b610a1f576040517f08c379a0000000000000000000000000000000000000000000000000000000008152600401610a1690613240565b60405180910390fd5b600260008373ffffffffffffffffffffffffffffffffffffffff1673ffffffffffffffffffffffffffffffffffffffff16815260200190815260200160002060009054906101000a900460ff168015610ae8575060016002811115610a8757610a86612d16565b5b600160008473ffffffffffffffffffffffffffffffffffffffff1673ffffffffffffffffffffffffffffffffffffffff16815260200190815260200160002060009054906101000a900460ff166002811115610ae657610ae5612d16565b5b145b610b27576040517f08c379a0000000000000000000000000000000000000000000000000000000008152600401610b1e90613512565b60405180910390fd5b600460003373ffffffffffffffffffffffffffffffffffffffff1673ffffffffffffffffffffffffffffffffffffffff16815260200190815260200160002060008373ffffffffffffffffffffffffffffffffffffffff1673ffffffffffffffffffffffffffffffffffffffff16815260200190815260200160002060009054906101000a900460ff1615610bf1576040517f08c379a0000000000000000000000000000000000000000000000000000000008152600401610be8906135a4565b60405180910390fd5b6001600460003373ffffffffffffffffffffffffffffffffffffffff1673ffffffffffffffffffffffffffffffffffffffff16815260200190815260200160002060008473ffffffffffffffffffffffffffffffffffffffff1673ffffffffffffffffffffffffffffffffffffffff16815260200190815260200160002060006101000a81548160ff021916908315150217905550600560003373ffffffffffffffffffffffffffffffffffffffff1673ffffffffffffffffffffffffffffffffffffffff16815260200190815260200160002080549050600660003373ffffffffffffffffffffffffffffffffffffffff1673ffffffffffffffffffffffffffffffffffffffff16815260200190815260200160002060008473ffffffffffffffffffffffffffffffffffffffff1673ffffffffffffffffffffffffffffffffffffffff16815260200190815260200160002081905550600560003373ffffffffffffffffffffffffffffffffffffffff1673ffffffffffffffffffffffffffffffffffffffff168152602001908152602001600020829080600181540180825580915050600190039060005260206000200160009091909190916101000a81548173ffffffffffffffffffffffffffffffffffffffff021916908373ffffffffffffffffffffffffffffffffffffffff1602179055508173ffffffffffffffffffffffffffffffffffffffff163373ffffffffffffffffffffffffffffffffffffffff167f9f520b3bfc56d06f7065d10b4683b3f57ac8895d5026cd176dee95ce1454cb8d60405160405180910390a35050565b60008054906101000a900473ffffffffffffffffffffffffffffffffffffffff1681565b6000600460008473ffffffffffffffffffffffffffffffffffffffff1673ffffffffffffffffffffffffffffffffffffffff16815260200190815260200160002060008373ffffffffffffffffffffffffffffffffffffffff1673ffffffffffffffffffffffffffffffffffffffff16815260200190815260200160002060009054906101000a900460ff16905092915050565b6000600260003373ffffffffffffffffffffffffffffffffffffffff1673ffffffffffffffffffffffffffffffffffffffff16815260200190815260200160002060009054906101000a900460ff168015610fc95750806002811115610f6857610f67612d16565b5b600160003373ffffffffffffffffffffffffffffffffffffffff1673ffffffffffffffffffffffffffffffffffffffff16815260200190815260200160002060009054906101000a900460ff166002811115610fc757610fc6612d16565b5b145b611008576040517f08c379a0000000000000000000000000000000000000000000000000000000008152600401610fff90613240565b60405180910390fd5b600460003373ffffffffffffffffffffffffffffffffffffffff1673ffffffffffffffffffffffffffffffffffffffff16815260200190815260200160002060008373ffffffffffffffffffffffffffffffffffffffff1673ffffffffffffffffffffffffffffffffffffffff16815260200190815260200160002060009054906101000a900460ff166110d1576040517f08c379a00000000000000000000000000000000000000000000000000000000081526004016110c89061365c565b60405180910390fd5b6000600460003373ffffffffffffffffffffffffffffffffffffffff1673ffffffffffffffffffffffffffffffffffffffff16815260200190815260200160002060008473ffffffffffffffffffffffffffffffffffffffff1673ffffffffffffffffffffffffffffffffffffffff16815260200190815260200160002060006101000a81548160ff0219169083151502179055506000600660003373ffffffffffffffffffffffffffffffffffffffff1673ffffffffffffffffffffffffffffffffffffffff16815260200190815260200160002060008473ffffffffffffffffffffffffffffffffffffffff1673ffffffffffffffffffffffffffffffffffffffff16815260200190815260200160002054905060006001600560003373ffffffffffffffffffffffffffffffffffffffff1673ffffffffffffffffffffffffffffffffffffffff16815260200190815260200160002080549050611238919061367c565b90508082146113de576000600560003373ffffffffffffffffffffffffffffffffffffffff1673ffffffffffffffffffffffffffffffffffffffff168152602001908152602001600020828154811061129457611293613260565b5b9060005260206000200160009054906101000a900473ffffffffffffffffffffffffffffffffffffffff16905080600560003373ffffffffffffffffffffffffffffffffffffffff1673ffffffffffffffffffffffffffffffffffffffff168152602001908152602001600020848154811061131357611312613260565b5b9060005260206000200160006101000a81548173ffffffffffffffffffffffffffffffffffffffff021916908373ffffffffffffffffffffffffffffffffffffffff16021790555082600660003373ffffffffffffffffffffffffffffffffffffffff1673ffffffffffffffffffffffffffffffffffffffff16815260200190815260200160002060008373ffffffffffffffffffffffffffffffffffffffff1673ffffffffffffffffffffffffffffffffffffffff16815260200190815260200160002081905550505b600560003373ffffffffffffffffffffffffffffffffffffffff1673ffffffffffffffffffffffffffffffffffffffff16815260200190815260200160002080548061142d5761142c6136b0565b5b6001900381819060005260206000200160006101000a81549073ffffffffffffffffffffffffffffffffffffffff02191690559055600660003373ffffffffffffffffffffffffffffffffffffffff1673ffffffffffffffffffffffffffffffffffffffff16815260200190815260200160002060008573ffffffffffffffffffffffffffffffffffffffff1673ffffffffffffffffffffffffffffffffffffffff168152602001908152602001600020600090558373ffffffffffffffffffffffffffffffffffffffff163373ffffffffffffffffffffffffffffffffffffffff167f825c8be24eb0df19500f63e86c29e7d0d951e73056b889b891d85e40938d9b6e60405160405180910390a350505050565b60016020528060005260406000206000915054906101000a900460ff1681565b60028060003373ffffffffffffffffffffffffffffffffffffffff1673ffffffffffffffffffffffffffffffffffffffff16815260200190815260200160002060009054906101000a900460ff16801561162b57508060028111156115ca576115c9612d16565b5b600160003373ffffffffffffffffffffffffffffffffffffffff1673ffffffffffffffffffffffffffffffffffffffff16815260200190815260200160002060009054906101000a900460ff16600281111561162957611628612d16565b5b145b61166a576040517f08c379a000000000000000000000000000000000000000000000000000000000815260040161166190613240565b60405180910390fd5b600260008473ffffffffffffffffffffffffffffffffffffffff1673ffffffffffffffffffffffffffffffffffffffff16815260200190815260200160002060009054906101000a900460ff16156116f7576040517f08c379a00000000000000000000000000000000000000000000000000000000081526004016116ee90613751565b60405180910390fd5b81600160008573ffffffffffffffffffffffffffffffffffffffff1673ffffffffffffffffffffffffffffffffffffffff16815260200190815260200160002060006101000a81548160ff0219169083600281111561175957611758612d16565b5b02179055506001600260008573ffffffffffffffffffffffffffffffffffffffff1673ffffffffffffffffffffffffffffffffffffffff16815260200190815260200160002060006101000a81548160ff0219169083151502179055508273ffffffffffffffffffffffffffffffffffffffff167f1e9acfe4df89a29b2be615d44fd962d8ce1fd19ff4a74ddf5a9401a6a4a2a6d2836040516117fc9190612d8d565b60405180910390a26001600281111561181857611817612d16565b5b82600281111561182b5761182a612d16565b5b0361188b573373ffffffffffffffffffffffffffffffffffffffff168373ffffffffffffffffffffffffffffffffffffffff167ff20f5e6593dca6eb3c01fd38161985b107285d5ddd9c924d97c170e62a43acdd60405160405180910390a35b505050565b60606000600260003373ffffffffffffffffffffffffffffffffffffffff1673ffffffffffffffffffffffffffffffffffffffff16815260200190815260200160002060009054906101000a900460ff16801561195c57508060028111156118fb576118fa612d16565b5b600160003373ffffffffffffffffffffffffffffffffffffffff1673ffffffffffffffffffffffffffffffffffffffff16815260200190815260200160002060009054906101000a900460ff16600281111561195a57611959612d16565b5b145b61199b576040517f08c379a000000000000000000000000000000000000000000000000000000000815260040161199290613240565b60405180910390fd5b600560003373ffffffffffffffffffffffffffffffffffffffff1673ffffffffffffffffffffffffffffffffffffffff168152602001908152602001600020805480602002602001604051908101604052809291908181526020018280548015611a5a57602002820191906000526020600020905b8160009054906101000a900473ffffffffffffffffffffffffffffffffffffffff1673ffffffffffffffffffffffffffffffffffffffff1681526020019060010190808311611a10575b505050505091505090565b60026020528060005260406000206000915054906101000a900460ff1681565b60028060003373ffffffffffffffffffffffffffffffffffffffff1673ffffffffffffffffffffffffffffffffffffffff16815260200190815260200160002060009054906101000a900460ff168015611b4e5750806002811115611aed57611aec612d16565b5b600160003373ffffffffffffffffffffffffffffffffffffffff1673ffffffffffffffffffffffffffffffffffffffff16815260200190815260200160002060009054906101000a900460ff166002811115611b4c57611b4b612d16565b5b145b611b8d576040517f08c379a0000000000000000000000000000000000000000000000000000000008152600401611b8490613240565b60405180910390fd5b60016002811115611ba157611ba0612d16565b5b600160008473ffffffffffffffffffffffffffffffffffffffff1673ffffffffffffffffffffffffffffffffffffffff16815260200190815260200160002060009054906101000a900460ff166002811115611c0057611bff612d16565b5b14611c40576040517f08c379a0000000000000000000000000000000000000000000000000000000008152600401611c37906137e3565b60405180910390fd5b600260008373ffffffffffffffffffffffffffffffffffffffff1673ffffffffffffffffffffffffffffffffffffffff16815260200190815260200160002060009054906101000a900460ff1615611ccd576040517f08c379a0000000000000000000000000000000000000000000000000000000008152600401611cc49061389b565b60405180910390fd5b6001600260008473ffffffffffffffffffffffffffffffffffffffff1673ffffffffffffffffffffffffffffffffffffffff16815260200190815260200160002060006101000a81548160ff0219169083151502179055503373ffffffffffffffffffffffffffffffffffffffff168273ffffffffffffffffffffffffffffffffffffffff167ff20f5e6593dca6eb3c01fd38161985b107285d5ddd9c924d97c170e62a43acdd60405160405180910390a35050565b60606001600260003373ffffffffffffffffffffffffffffffffffffffff1673ffffffffffffffffffffffffffffffffffffffff16815260200190815260200160002060009054906101000a900460ff168015611e4f5750806002811115611dee57611ded612d16565b5b600160003373ffffffffffffffffffffffffffffffffffffffff1673ffffffffffffffffffffffffffffffffffffffff16815260200190815260200160002060009054906101000a900460ff166002811115611e4d57611e4c612d16565b5b145b611e8e576040517f08c379a0000000000000000000000000000000000000000000000000000000008152600401611e8590613240565b60405180910390fd5b60011515600460008573ffffffffffffffffffffffffffffffffffffffff1673ffffffffffffffffffffffffffffffffffffffff16815260200190815260200160002060003373ffffffffffffffffffffffffffffffffffffffff1673ffffffffffffffffffffffffffffffffffffffff16815260200190815260200160002060009054906101000a900460ff16151514611f5e576040517f08c379a0000000000000000000000000000000000000000000000000000000008152600401611f559061392d565b60405180910390fd5b6000600360008573ffffffffffffffffffffffffffffffffffffffff1673ffffffffffffffffffffffffffffffffffffffff1681526020019081526020016000208054905090506000805b8281101561204757600360008773ffffffffffffffffffffffffffffffffffffffff1673ffffffffffffffffffffffffffffffffffffffff168152602001908152602001600020818154811061200257612001613260565b5b906000526020600020906005020160040160009054906101000a900460ff16612034578180612030906132e8565b9250505b808061203f906132e8565b915050611fa9565b5060008167ffffffffffffffff8111156120645761206361394d565b5b60405190808252806020026020018201604052801561209d57816020015b61208a612afb565b8152602001906001900390816120825790505b5090506000805b8481101561231d57600360008973ffffffffffffffffffffffffffffffffffffffff1673ffffffffffffffffffffffffffffffffffffffff16815260200190815260200160002081815481106120fd576120fc613260565b5b906000526020600020906005020160040160009054906101000a900460ff1661230a57600360008973ffffffffffffffffffffffffffffffffffffffff1673ffffffffffffffffffffffffffffffffffffffff168152602001908152602001600020818154811061217157612170613260565b5b90600052602060002090600502016040518060a0016040529081600082015481526020016001820180546121a4906139ab565b80601f01602080910402602001604051908101604052809291908181526020018280546121d0906139ab565b801561221d5780601f106121f25761010080835404028352916020019161221d565b820191906000526020600020905b81548152906001019060200180831161220057829003601f168201915b50505050508152602001600282018054612236906139ab565b80601f0160208091040260200160405190810160405280929190818152602001828054612262906139ab565b80156122af5780601f10612284576101008083540402835291602001916122af565b820191906000526020600020905b81548152906001019060200180831161229257829003601f168201915b50505050508152602001600382015481526020016004820160009054906101000a900460ff1615151515815250508383815181106122f0576122ef613260565b5b60200260200101819052508180612306906132e8565b9250505b8080612315906132e8565b9150506120a4565b508195505050505050919050565b6000600260003373ffffffffffffffffffffffffffffffffffffffff1673ffffffffffffffffffffffffffffffffffffffff16815260200190815260200160002060009054906101000a900460ff1680156123f5575080600281111561239457612393612d16565b5b600160003373ffffffffffffffffffffffffffffffffffffffff1673ffffffffffffffffffffffffffffffffffffffff16815260200190815260200160002060009054906101000a900460ff1660028111156123f3576123f2612d16565b5b145b612434576040517f08c379a000000000000000000000000000000000000000000000000000000000815260040161242b90613240565b60405180910390fd5b60076000815480929190612447906132e8565b9190505550600360003373ffffffffffffffffffffffffffffffffffffffff1673ffffffffffffffffffffffffffffffffffffffff1681526020019081526020016000206040518060a00160405280600754815260200187878080601f016020809104026020016040519081016040528093929190818152602001838380828437600081840152601f19601f82011690508083019250505050505050815260200185858080601f016020809104026020016040519081016040528093929190818152602001838380828437600081840152601f19601f8201169050808301925050505050505081526020014281526020016000151581525090806001815401808255809150506001900390600052602060002090600502016000909190919091506000820151816000015560208201518160010190816125879190613b88565b50604082015181600201908161259d9190613b88565b506060820151816003015560808201518160040160006101000a81548160ff02191690831515021790555050503373ffffffffffffffffffffffffffffffffffffffff167fa9ad46db2c884e6e6299f7bb4005897a4368a2f8a56ddd645874bb9498a03bab600754878760405161261693929190613c96565b60405180910390a25050505050565b60606000600260003373ffffffffffffffffffffffffffffffffffffffff1673ffffffffffffffffffffffffffffffffffffffff16815260200190815260200160002060009054906101000a900460ff1680156126f157508060028111156126905761268f612d16565b5b600160003373ffffffffffffffffffffffffffffffffffffffff1673ffffffffffffffffffffffffffffffffffffffff16815260200190815260200160002060009054906101000a900460ff1660028111156126ef576126ee612d16565b5b145b612730576040517f08c379a000000000000000000000000000000000000000000000000000000000815260040161272790613240565b60405180910390fd5b6000600360003373ffffffffffffffffffffffffffffffffffffffff1673ffffffffffffffffffffffffffffffffffffffff1681526020019081526020016000208054905090506000805b8281101561281957600360003373ffffffffffffffffffffffffffffffffffffffff1673ffffffffffffffffffffffffffffffffffffffff16815260200190815260200160002081815481106127d4576127d3613260565b5b906000526020600020906005020160040160009054906101000a900460ff16612806578180612802906132e8565b9250505b8080612811906132e8565b91505061277b565b5060008167ffffffffffffffff8111156128365761283561394d565b5b60405190808252806020026020018201604052801561286f57816020015b61285c612afb565b8152602001906001900390816128545790505b5090506000805b84811015612aef57600360003373ffffffffffffffffffffffffffffffffffffffff1673ffffffffffffffffffffffffffffffffffffffff16815260200190815260200160002081815481106128cf576128ce613260565b5b906000526020600020906005020160040160009054906101000a900460ff16612adc57600360003373ffffffffffffffffffffffffffffffffffffffff1673ffffffffffffffffffffffffffffffffffffffff168152602001908152602001600020818154811061294357612942613260565b5b90600052602060002090600502016040518060a001604052908160008201548152602001600182018054612976906139ab565b80601f01602080910402602001604051908101604052809291908181526020018280546129a2906139ab565b80156129ef5780601f106129c4576101008083540402835291602001916129ef565b820191906000526020600020905b8154815290600101906020018083116129d257829003601f168201915b50505050508152602001600282018054612a08906139ab565b80601f0160208091040260200160405190810160405280929190818152602001828054612a34906139ab565b8015612a815780601f10612a5657610100808354040283529160200191612a81565b820191906000526020600020905b815481529060010190602001808311612a6457829003601f168201915b50505050508152602001600382015481526020016004820160009054906101000a900460ff161515151581525050838381518110612ac257612ac1613260565b5b60200260200101819052508180612ad8906132e8565b9250505b8080612ae7906132e8565b915050612876565b50819550505050505090565b6040518060a00160405280600081526020016060815260200160608152602001600081526020016000151581525090565b600080fd5b600080fd5b6000819050919050565b612b4981612b36565b8114612b5457600080fd5b50565b600081359050612b6681612b40565b92915050565b600060208284031215612b8257612b81612b2c565b5b6000612b9084828501612b57565b91505092915050565b60038110612ba657600080fd5b50565b600081359050612bb881612b99565b92915050565b600060208284031215612bd457612bd3612b2c565b5b6000612be284828501612ba9565b91505092915050565b600073ffffffffffffffffffffffffffffffffffffffff82169050919050565b6000612c1682612beb565b9050919050565b612c2681612c0b565b8114612c3157600080fd5b50565b600081359050612c4381612c1d565b92915050565b600060208284031215612c5f57612c5e612b2c565b5b6000612c6d84828501612c34565b91505092915050565b612c7f81612c0b565b82525050565b6000602082019050612c9a6000830184612c76565b92915050565b60008060408385031215612cb757612cb6612b2c565b5b6000612cc585828601612c34565b9250506020612cd685828601612c34565b9150509250929050565b60008115159050919050565b612cf581612ce0565b82525050565b6000602082019050612d106000830184612cec565b92915050565b7f4e487b7100000000000000000000000000000000000000000000000000000000600052602160045260246000fd5b60038110612d5657612d55612d16565b5b50565b6000819050612d6782612d45565b919050565b6000612d7782612d59565b9050919050565b612d8781612d6c565b82525050565b6000602082019050612da26000830184612d7e565b92915050565b60008060408385031215612dbf57612dbe612b2c565b5b6000612dcd85828601612c34565b9250506020612dde85828601612ba9565b9150509250929050565b600081519050919050565b600082825260208201905092915050565b6000819050602082019050919050565b612e1d81612c0b565b82525050565b6000612e2f8383612e14565b60208301905092915050565b6000602082019050919050565b6000612e5382612de8565b612e5d8185612df3565b9350612e6883612e04565b8060005b83811015612e99578151612e808882612e23565b9750612e8b83612e3b565b925050600181019050612e6c565b5085935050505092915050565b60006020820190508181036000830152612ec08184612e48565b905092915050565b600081519050919050565b600082825260208201905092915050565b6000819050602082019050919050565b612efd81612b36565b82525050565b600081519050919050565b600082825260208201905092915050565b60005b83811015612f3d578082015181840152602081019050612f22565b60008484015250505050565b6000601f19601f8301169050919050565b6000612f6582612f03565b612f6f8185612f0e565b9350612f7f818560208601612f1f565b612f8881612f49565b840191505092915050565b612f9c81612ce0565b82525050565b600060a083016000830151612fba6000860182612ef4565b5060208301518482036020860152612fd28282612f5a565b91505060408301518482036040860152612fec8282612f5a565b91505060608301516130016060860182612ef4565b5060808301516130146080860182612f93565b508091505092915050565b600061302b8383612fa2565b905092915050565b6000602082019050919050565b600061304b82612ec8565b6130558185612ed3565b93508360208202850161306785612ee4565b8060005b858110156130a35784840389528151613084858261301f565b945061308f83613033565b925060208a0199505060018101905061306b565b50829750879550505050505092915050565b600060208201905081810360008301526130cf8184613040565b905092915050565b600080fd5b600080fd5b600080fd5b60008083601f8401126130fc576130fb6130d7565b5b8235905067ffffffffffffffff811115613119576131186130dc565b5b602083019150836001820283011115613135576131346130e1565b5b9250929050565b6000806000806040858703121561315657613155612b2c565b5b600085013567ffffffffffffffff81111561317457613173612b31565b5b613180878288016130e6565b9450945050602085013567ffffffffffffffff8111156131a3576131a2612b31565b5b6131af878288016130e6565b925092505092959194509250565b600082825260208201905092915050565b7f5765623320417574683a204163636573732064656e6965642e20526f6c65206d60008201527f69736d617463682e000000000000000000000000000000000000000000000000602082015250565b600061322a6028836131bd565b9150613235826131ce565b604082019050919050565b600060208201905081810360008301526132598161321d565b9050919050565b7f4e487b7100000000000000000000000000000000000000000000000000000000600052603260045260246000fd5b61329881612b36565b82525050565b60006020820190506132b3600083018461328f565b92915050565b7f4e487b7100000000000000000000000000000000000000000000000000000000600052601160045260246000fd5b60006132f382612b36565b91507fffffffffffffffffffffffffffffffffffffffffffffffffffffffffffffffff8203613325576133246132b9565b5b600182019050919050565b7f4c656467657220456e67696e65204661696c7572653a2054617267657420726560008201527f636f726420494420646f6573206e6f74206d617463682061637469766520656e60208201527f74726965732e0000000000000000000000000000000000000000000000000000604082015250565b60006133b26046836131bd565b91506133bd82613330565b606082019050919050565b600060208201905081810360008301526133e1816133a5565b9050919050565b7f536563757269747920476174653a204964656e7469747920616464726573732060008201527f7369676e617475726520616c726561647920626f756e6420746f20726f6c657360208201527f206c65646765722e000000000000000000000000000000000000000000000000604082015250565b600061346a6048836131bd565b9150613475826133e8565b606082019050919050565b600060208201905081810360008301526134998161345d565b9050919050565b7f41434c2047756172643a205461726765742077616c6c6574206973206e6f742060008201527f616e2061637469766520766572696669656420446f63746f72206e6f64652e00602082015250565b60006134fc603f836131bd565b9150613507826134a0565b604082019050919050565b6000602082019050818103600083015261352b816134ef565b9050919050565b7f41434c2047756172643a204163636573732063726564656e7469616c7320616c60008201527f7265616479206c697665206f6e2072656769737472792e000000000000000000602082015250565b600061358e6037836131bd565b915061359982613532565b604082019050919050565b600060208201905081810360008301526135bd81613581565b9050919050565b7f41434c2047756172643a20546172676574206964656e7469747920686f6c647360008201527f206e6f20616374697665207065726d697373696f6e7320636c656172616e636560208201527f2e00000000000000000000000000000000000000000000000000000000000000604082015250565b60006136466041836131bd565b9150613651826135c4565b606082019050919050565b6000602082019050818103600083015261367581613639565b9050919050565b600061368782612b36565b915061369283612b36565b92508282039050818111156136aa576136a96132b9565b5b92915050565b7f4e487b7100000000000000000000000000000000000000000000000000000000600052603160045260246000fd5b7f476f7665726e616e6365204e6f64653a205468697320757365722070726f666960008201527f6c65207369676e617475726520697320616c7265616479206163746976652e00602082015250565b600061373b603f836131bd565b9150613746826136df565b604082019050919050565b6000602082019050818103600083015261376a8161372e565b9050919050565b7f476f7665726e616e6365204e6f64653a20546172676574206964656e7469747960008201527f206d757374206d617020746f206120446f63746f722074656d706c6174652e00602082015250565b60006137cd603f836131bd565b91506137d882613771565b604082019050919050565b600060208201905081810360008301526137fc816137c0565b9050919050565b7f476f7665726e616e6365204e6f64653a20546172676574206964656e7469747960008201527f20697320616c72656164792066756c6c7920617574686f72697a65642061637260208201527f6f737320656e64706f696e74732e000000000000000000000000000000000000604082015250565b6000613885604e836131bd565b915061389082613803565b606082019050919050565b600060208201905081810360008301526138b481613878565b9050919050565b7f57656233204669726577616c6c3a2050617469656e7420686173206e6f74206160008201527f7574686f72697a65642074686973206e6f646520636f6e6e656374696f6e2e00602082015250565b6000613917603f836131bd565b9150613922826138bb565b604082019050919050565b600060208201905081810360008301526139468161390a565b9050919050565b7f4e487b7100000000000000000000000000000000000000000000000000000000600052604160045260246000fd5b7f4e487b7100000000000000000000000000000000000000000000000000000000600052602260045260246000fd5b600060028204905060018216806139c357607f821691505b6020821081036139d6576139d561397c565b5b50919050565b60008190508160005260206000209050919050565b60006020601f8301049050919050565b600082821b905092915050565b600060088302613a3e7fffffffffffffffffffffffffffffffffffffffffffffffffffffffffffffffff82613a01565b613a488683613a01565b95508019841693508086168417925050509392505050565b6000819050919050565b6000613a85613a80613a7b84612b36565b613a60565b612b36565b9050919050565b6000819050919050565b613a9f83613a6a565b613ab3613aab82613a8c565b848454613a0e565b825550505050565b600090565b613ac8613abb565b613ad3818484613a96565b505050565b5b81811015613af757613aec600082613ac0565b600181019050613ad9565b5050565b601f821115613b3c57613b0d816139dc565b613b16846139f1565b81016020851015613b25578190505b613b39613b31856139f1565b830182613ad8565b50505b505050565b600082821c905092915050565b6000613b5f60001984600802613b41565b1980831691505092915050565b6000613b788383613b4e565b9150826002028217905092915050565b613b9182612f03565b67ffffffffffffffff811115613baa57613ba961394d565b5b613bb482546139ab565b613bbf828285613afb565b600060209050601f831160018114613bf25760008415613be0578287015190505b613bea8582613b6c565b865550613c52565b601f198416613c00866139dc565b60005b82811015613c2857848901518255600182019150602085019450602081019050613c03565b86831015613c455784890151613c41601f891682613b4e565b8355505b6001600288020188555050505b505050505050565b82818337600083830152505050565b6000613c7583856131bd565b9350613c82838584613c5a565b613c8b83612f49565b840190509392505050565b6000604082019050613cab600083018661328f565b8181036020830152613cbe818486613c69565b905094935050505056fea2646970667358221220b17a8ecc70e87d8634d19a60b4f9242d55f3d2fbe719200416d354b392575f8f64736f6c63430008140033",
  "linkReferences": {},
  "deployedLinkReferences": {}
}